{
  "contractName": "TransferHelperTestFakeBEP20Noncompliant",
  "abi": [
    {
      "inputs": [],
      "name": "shouldRevert",
      "outputs": [
        {
          "internalType": "bool",
          "name": "",
          "type": "bool"
        }
      ],
      "stateMutability": "view",
      "type": "function"
    },
    {
      "inputs": [
        {
          "internalType": "bool",
          "name": "shouldRevert_",
          "type": "bool"
        }
      ],
      "name": "setup",
      "outputs": [],
      "stateMutability": "nonpayable",
      "type": "function"
    },
    {
      "inputs": [
        {
          "internalType": "address",
          "name": "",
          "type": "address"
        },
        {
          "internalType": "uint256",
          "name": "",
          "type": "uint256"
        }
      ],
      "name": "transfer",
      "outputs": [],
      "stateMutability": "view",
      "type": "function"
    },
    {
      "inputs": [
        {
          "internalType": "address",
          "name": "",
          "type": "address"
        },
        {
          "internalType": "address",
          "name": "",
          "type": "address"
        },
        {
          "internalType": "uint256",
          "name": "",
          "type": "uint256"
        }
      ],
      "name": "transferFrom",
      "outputs": [],
      "stateMutability": "view",
      "type": "function"
    },
    {
      "inputs": [
        {
          "internalType": "address",
          "name": "",
          "type": "address"
        },
        {
          "internalType": "uint256",
          "name": "",
          "type": "uint256"
        }
      ],
      "name": "approve",
      "outputs": [],
      "stateMutability": "view",
      "type": "function"
    }
  ],
  "bytecode": "0x608060405234801561001057600080fd5b50610274806100206000396000f3fe608060405234801561001057600080fd5b50600436106100575760003560e01c8063095ea7b31461005c57806323b872dd146100aa578063a9059cbb14610118578063d3072d8214610166578063e2c169ec14610188575b600080fd5b6100a86004803603604081101561007257600080fd5b81019080803573ffffffffffffffffffffffffffffffffffffffff169060200190929190803590602001909291905050506101b8565b005b610116600480360360608110156100c057600080fd5b81019080803573ffffffffffffffffffffffffffffffffffffffff169060200190929190803573ffffffffffffffffffffffffffffffffffffffff169060200190929190803590602001909291905050506101d5565b005b6101646004803603604081101561012e57600080fd5b81019080803573ffffffffffffffffffffffffffffffffffffffff169060200190929190803590602001909291905050506101f3565b005b61016e610210565b604051808215151515815260200191505060405180910390f35b6101b66004803603602081101561019e57600080fd5b81019080803515159060200190929190505050610222565b005b6000809054906101000a900460ff16156101d157600080fd5b5050565b6000809054906101000a900460ff16156101ee57600080fd5b505050565b6000809054906101000a900460ff161561020c57600080fd5b5050565b6000809054906101000a900460ff1681565b806000806101000a81548160ff0219169083151502179055505056fea2646970667358221220062f4bf04e1256191be344286c28c0ff86d7fc50daaab1bfc0e4483a4cda31b264736f6c63430006060033",
  "immutableReferences": {},
  "source": "// SPDX-License-Identifier: GPL-3.0-or-later\r\n\r\npragma solidity >=0.6.0;\r\n\r\nimport '../utils/TransferHelper.sol';\r\n\r\n// test helper for transfers\r\ncontract TransferHelperTest {\r\n    function safeApprove(\r\n        address token,\r\n        address to,\r\n        uint256 value\r\n    ) external {\r\n        TransferHelper.safeApprove(token, to, value);\r\n    }\r\n\r\n    function safeTransfer(\r\n        address token,\r\n        address to,\r\n        uint256 value\r\n    ) external {\r\n        TransferHelper.safeTransfer(token, to, value);\r\n    }\r\n\r\n    function safeTransferFrom(\r\n        address token,\r\n        address from,\r\n        address to,\r\n        uint256 value\r\n    ) external {\r\n        TransferHelper.safeTransferFrom(token, from, to, value);\r\n    }\r\n\r\n    function safeTransferBNB(address to, uint256 value) external {\r\n        TransferHelper.safeTransferBNB(to, value);\r\n    }\r\n}\r\n\r\n// can revert on failure and returns true if successful\r\ncontract TransferHelperTestFakeBEP20Compliant {\r\n    bool public success;\r\n    bool public shouldRevert;\r\n\r\n    function setup(bool success_, bool shouldRevert_) public {\r\n        success = success_;\r\n        shouldRevert = shouldRevert_;\r\n    }\r\n\r\n    function transfer(address, uint256) public view returns (bool) {\r\n        require(!shouldRevert, 'REVERT');\r\n        return success;\r\n    }\r\n\r\n    function transferFrom(\r\n        address,\r\n        address,\r\n        uint256\r\n    ) public view returns (bool) {\r\n        require(!shouldRevert, 'REVERT');\r\n        return success;\r\n    }\r\n\r\n    function approve(address, uint256) public view returns (bool) {\r\n        require(!shouldRevert, 'REVERT');\r\n        return success;\r\n    }\r\n}\r\n\r\n// only reverts on failure, no return value\r\ncontract TransferHelperTestFakeBEP20Noncompliant {\r\n    bool public shouldRevert;\r\n\r\n    function setup(bool shouldRevert_) public {\r\n        shouldRevert = shouldRevert_;\r\n    }\r\n\r\n    function transfer(address, uint256) public view {\r\n        require(!shouldRevert);\r\n    }\r\n\r\n    function transferFrom(\r\n        address,\r\n        address,\r\n        uint256\r\n    ) public view {\r\n        require(!shouldRevert);\r\n    }\r\n\r\n    function approve(address, uint256) public view {\r\n        require(!shouldRevert);\r\n    }\r\n}\r\n\r\ncontract TransferHelperTestFakeFallback {\r\n    bool public shouldRevert;\r\n\r\n    function setup(bool shouldRevert_) public {\r\n        shouldRevert = shouldRevert_;\r\n    }\r\n\r\n    receive() external payable {\r\n        require(!shouldRevert);\r\n    }\r\n}\r\n",
  "sourcePath": "C:\\Users\\User\\Documents\\NarfexSwap\\bakeryswaplib\\contracts\\test\\TransferHelperTest.sol",
  "compiler": {
    "name": "solc",
    "version": "0.6.6+commit.6c089d02.Emscripten.clang"
  },
  "schemaVersion": "3.4.4",
  "updatedAt": "2022-03-23T12:59:05.884Z",
  "devdoc": {
    "methods": {}
  },
  "userdoc": {
    "methods": {}
  }
}